:020000040000FA
:020000002F28A7
:02000800792855
:10004000FF3FFF3FFF3FFF3FFF3FFF3FFF3FFF3FC0
:10005000FF3FFF3FFF3FFF3FFF3FFF3FFF3F831655
:1000600003130F3085000030860088000C148312C3
:100070000313850186018801A201A301A401A50142
:10008000A601A701A801A901AA01AB01AE01013097
:1000900090008B170B17D8308F0000308E0006149D
:1000A000831603178801890183120313572802302E
:1000B0008A000518642806182408861825080619D9
:1000C0002608861927086D28061828088618290882
:1000D00006192A0886192B086D2800228A01880033
:1000E000CF20861D76280130860057280310860D04
:1000F0005728AC00030EAD000C10D8308F00003034
:100100008E00AE0A2E08643A031DB028AE01A20A82
:1001100022080A3A031D8E28A201A30A2308063AE0
:10012000031D9428A301A40A24080A3A031D9A284F
:10013000A401A50A2508063A031DA028A501A60AC0
:1001400026080A3A031DA628A601A70A2608043A8B
:10015000031DB0282708023A031DB028A601A701F5
:100160000518851CCA28A80A28080A3A031DBA28B7
:10017000A801A90A29080A3A031DC028A901AA0A48
:100180002A080A3A031DC628AA01AB0A2B08063A18
:100190000319AB012D0E8300AC0E2C0E0900643048
:1001A000A1000130A00000000000000000000000DD
:0A01B000A1030319A00BD3280800D7
:100400008207C034F934A434B0349934923483343C
:08041000F83480349834C03444
:00000001FF
