:02000000352E9B
:10000600103083120313FD00FD0B072800000800C3
:0400160000000800DE
:10001A00083083120313FC002330FD00FD0B132864
:06002A00FC0B1328080086
:100030007B15FB1F22280130F300F201F101F001D2
:08004000FA0DF20CFF3008007C
:08004800FA1FF213003008005A
:10005000FB14FB1F3228FF30F300F200F100F00028
:08006000FA0DF20CFF3008005C
:0E006800F201F101F001F801F301003008008F
:10007600A0017208031D50287108F2007008F100F3
:10008600F001A0157208031D50287108F200F10155
:10009600A0112016720803195E282008F302031D1A
:1000A600031C62280310F21B6628F00DF10DF20DF9
:1000B600F30B562862280130FC00342069280230F0
:0E00C600FC00182069280430FC0024200800EB
:1000D40083120313DC1B70288812712888165C1B9A
:1000E4007528081276280816DC1A7A2888117B28C5
:1000F40088155C1A7F280811802808153D18842863
:1001040008148528081088140B208810DC198C2802
:1001140088128D2888165C199128081292280816CE
:10012400DC1896288811972888155C189B280811D4
:100134009C2808153D18A0280814A1280810881424
:100144000B2088103D1CA8280D20A9280320080096
:100154007C18E028FC18B1287C19FF28AA28A001E3
:100164007208031DD1287108F2007008F1007808A4
:10017400F000F801A0157208031DD1287108F200DF
:100184007008F100F001A01120167208031DD12897
:100194007108F200F101A01572080319F328200870
:1001A400F302031D031CF7280310F21BE028F80DCB
:1001B400F00DF10DF20DF30BD728F7287B1B701C03
:1001C400FB28F81FFB28F00A0319F10A0319F20AA5
:1001D400031DFB28F20CF10CF00CF30A0319FF28A1
:1001E400FB280130FC00342002290230FC001820D6
:1001F40002290430FC00242002290830FC002820B5
:0402040000000800EE
:10020800831203133D105A08DC006A203D140800CD
:100218008312031372087606A000F801F901730827
:100228007702031C2F297708FD007308F7007D0863
:10023800F3007608FD007208F6007D08F2007508E4
:10024800FD007108F5007D08F1007408FD007008D4
:10025800F4007D08F00077080319A8297208FA004D
:10026800F217F61777087302F700031962290830A6
:100278007702031C5829F7007408F9007508F40080
:100288007608F500F60108307702031C5829F700B4
:100298007408F9007508F400F50108307702031CAA
:1002A80058297A08F200A829770803196229031047
:1002B800F60CF50CF40CF90CF70B5B29A01F6F2951
:1002C800F909F409F509F609F90A0319F40A0319F1
:1002D800F50A0319F60A7908F80774080318740F61
:1002E800F00775080318750FF10776080318760FDD
:1002F800F207A01B8829031C9829F20CF10CF00CBA
:10030800F80CF30F9829A42903189C29F809F00977
:10031800F109F209F80A0319F00A0319F10A031995
:10032800F20A8030FA06A0290130FC00AA20AA2986
:100338000230FC00AA20AA290430FC003B20AA298C
:100348000830FC002820AA290030FC000000080022
:06035800FB15FF30080058
:0E035E00073083120313FD00FD0BB3290800C6
:10036C0083120313FA017308031D7A147708031D13
:10037C00FA147A080319022A033A0319CD297A18B8
:10038C00CA29F61F002AFE29F21FFE29002A72082C
:10039C008039FA00F21376088039F6137A060319BD
:1003AC00DB297A080319FE29002A7708730203193E
:1003BC00E229031CF629FA29760872020319E929A5
:1003CC00031CF629FA29750871020319F029031C7C
:1003DC00F629FA29740870020319022A0318FA295B
:1003EC00FA080319002AFE29FA080319FE29002A23
:1003FC000314080003100800031403150800080078
:10040C0083120313F8010830FC00700DF80D74080A
:10041C00F8020318132AF8070310F00DFC0B0B2A33
:02042C000800C6
:10042E0083120313FB017308031D770803196E2A49
:10043E0072087606FA007708F3077E30031C2B2A23
:10044E00F3020318712A2E2AF302031C742A72086F
:10045E00F8007108FC007008FD00F817F61703107D
:10046E00F201F101F0011830A0007D1C482A740839
:10047E00F00775080318750FF10776080318760F45
:10048E00F207F20CF10CF00CF80CFC0CFD0C031046
:10049E00A00B3C2AF21B582AF80DF00DF10DF20DAF
:1004AE00F3037B1B701C6A2AF81F6A2AF00A0319D1
:1004BE00F10A0319F20A031D6A2AF20CF10CF00C70
:1004CE00F30A0319712AFA1FF2130030762A01304B
:1004DE003420762A02302820762A04301820000094
:0204EE00080004
:1004F000831203135A08F2007208F100F20A5B0833
:10050000F000DB0A700884000008F0007108840025
:10051000700880007108840000080319902A7C2A62
:060520005A08F00008007B
:0E052600831203133F088A003E08820008007B
:10053400831203137408003A031DB52A7508003AA0
:10054400031DB52A7608003A031DB52A7708003A38
:10055400031DB52AFF30F000FF30F1007F30F200B8
:10056400FF30F300502B8312031377080319442B35
:1005740073080319472B720876068039FA00F217BC
:10058400F617A0017208F8007108FC007008FD005D
:100594007408FD027508031C750FFC027608031C21
:1005A400760FF802F801FC01FD01031CE02A031098
:1005B400F20CF10CF00CF80C0130A0007708F302F7
:1005C400031CEA2A7E302007F30703184A2BEF2A7C
:1005D4007E302007F307031C4D2B1830FA07FD0D5E
:1005E400FC0DF80DF00DF10DF20DA00D7408F002E4
:1005F4007508031C750FF1027608031C760FF202CE
:10060400760DA004201C082B7D14132B7408F0070E
:1006140075080318750FF10776080318760AF207B0
:100624007D10FA031F307A05031DF12A7B1B7D1C04
:100634003A2B0310F00DF10DF20DA00D7408F00229
:100644007508031C750FF1027608031C760FF2027D
:10065400760D20040139FD070318FC0A0319F80A72
:10066400031D3A2BF80CFC0CFD0CF30A03194A2B5E
:10067400FA1FF8137808F2007C08F1007D08F000F6
:1006840000304F2B0130AC214F2B023034204F2B44
:0E069400043028204F2B0830182000000800EA
:1006A20083120313D801D9014D08D4004E08D50096
:1006B2004F08D6005008D7005708FF3A031D6B2B8E
:1006C2005608FF3A031D6B2B5508FF3A031D6B2B8F
:1006D2005408FF3A031D752B5108DA002B30DB005A
:1006E20078220330F0004A2D0130D200D61F842B2D
:1006F20080305606F0007008D600D20A51088400F5
:100702002D308000D10A0030F0005706031D932BD4
:1007120070085606031D932B70085506031D932B74
:100722005408003A031D9C2B5108DA002F30DB00DD
:100732007822F0014A2D5708FF3A031DAA2B5608CA
:10074200003A031DAA2B5508003A031DAA2B540890
:10075200003A031DB42B5108DA002130DB00782265
:100762005208F0004A2D0030F4000030F50000304D
:10077200F6007F30F7005408F0005508F1005608E3
:10078200F2005708F300B621013003180030F000E0
:1007920070080319E72B5408F0005508F1005608B9
:1007A200F2005708F3000030F4000030F50020306A
:1007B200F6008230F70017227008D4007108D500C5
:1007C2007208D6007308D700D903B42B0030F400A6
:1007D2000030F5002030F6008230F7005408F000B7
:1007E2005508F1005608F2005708F300B62101300F
:1007F200031C0030F000700803191A2C5408F00092
:100802005508F1005608F2005708F300CD30F40005
:10081200CC30F5004C30F6007B30F7001722700820
:10082200D4007108D5007208D6007308D700D90A1F
:10083200E72BFF305405F800FF305505F9007F30F3
:100842005605FA0000305705FB007808F4007908D5
:10085200F5007A08F6007B08F700F40DF50DF60DA9
:10086200F70D741000305405F00000305505F1000A
:1008720000305605F200FF305705F3007008D4002F
:100882007108D5007208D6007308D70074085404A2
:10089200F00075085504F10076085604F200770856
:1008A2005704F3007008D4007108D5007208D6000E
:1008B2007308D7007F305702F0007008D300013070
:1008C200D7007008F4005408F0005508F1005608EB
:1008D200F2005708F30074080319762CF00DF10D9D
:1008E200F20DF30D7010FF3E6D2C7008D4007108EC
:1008F200D5007208D6007308D7005708303EF000C2
:100902005108840070088000D10A80305906F00036
:100912008030013A7002031C972C8030063AF000B6
:10092200803059067002031C972C9E2C51088400BB
:100932002E308000D10A0130D8000630D30053088F
:10094200003A0319FC2CD7015408F0005508F100B5
:100952005608F2005708F300F00DF10DF20DF30DF9
:100962007010F00DF10DF20DF30D70105408F00738
:1009720055080318550FF10756080318560FF207CA
:1009820057080318570FF3077008D4007108D500F1
:100992007208D6007308D7005408F0005508F10019
:1009A2005608F2005708F300F00DF10DF20DF30DA9
:1009B20070107008D4007108D5007208D600730850
:1009C200D7005708303EF0005108840070088000BC
:1009D200D10A5808003A031DFA2CD9035908003AE3
:1009E200031DFA2C510884002E308000D10A0130F8
:1009F200D800D303A02CFF30510784000008303AFE
:100A0200031D052DD103FC2CFF3051078400000883
:100A12002E3A031D0D2DD1035908003A0319462D14
:100A22005108840065308000D10A80305906F000F8
:100A32008030003A70020318262D510884002D30B0
:100A42008000D10A5908003CD9005908D30059083E
:100A5200093C0318382D0A30F4005308F00006222E
:100A62003030F0075108840070088000D10A0A3043
:100A7200F4005308F00006227808F0003030F00746
:100A82005108840070088000D10A51088400800156
:040A9200F001080067
:100A9600831203137008F8007108F000F101F201E7
:100AA600F301FB01FC019630F300FA017008F10036
:0C0AB6007808F000F801F2013B20080075
:100AC200C330831203139F05C0309F004D08F0000E
:100AD200F00D7010F00D701070089F0483169F17B0
:100AE20083121F14AF219F149F1C792D0000752DB6
:100AF2001F101E08F100F00183161E08F0040030DA
:040B0200F1040800F2
:0C0B0600831203138030F6060C21080057
:100B1200FF3083120313C000FF30C100FF30C20058
:100B2200FF30C3309F05C0309F0083169F1783128A
:040B32001F14080084
:100B360083160313881008100811881108128812EA
:100B460083128810081088120812881108110D20C7
:100B56000D200D208815081588140B2088100D20EF
:100B660088140B2088100D2088140B2088100D2067
:100B7600081188140B2088100D2088140B2088106B
:100B86008811881688140B2088100D2088120815E5
:100B960088140B208810081188140B2088100D204B
:100BA60088140B208810081588140B2088100D2037
:100BB600081188140B208810881608168815081541
:0C0BC60088140B2088100D203D1408003E
:100BD200FB2D803083120313CD000E2EC030CD00CA
:100BE2000E2E9430CD000E2ED430CD000E2E80303D
:100BF200CD000E2E831203134D08013A0319EA2D7C
:100C02004D08023A0319EF2D4D08033A0319F22D4C
:100C12004D08043A0319F52DF82D4E03F0004D0846
:100C2200F0077008CD007008DC006A203D10D0018A
:100C320050084F07840000080319272E50084F0759
:100C420084000008DA000421D00A192E3D1408009D
:100C520093228A110A128000840ABE0A0319BF0A6B
:080C6200F003031D292E080018
:100C6A007227303083160317880014308900203029
:100C7A0003138500033086000130890089259B25EE
:100C8A000C30DC006A200130CD000130CE00283063
:100C9A00CF00E9250230CD000130CE002530CF004B
:100CAA00E9250230CD000930CE003330CF00E925E6
:100CBA000A30CD00612570088312B1007108B200B4
:100CCA004B252130F4002330F5002030F600773030
:100CDA00F7001722CD30F400CC30F5002C30F600A6
:100CEA008130F70017220030F4000030F500203080
:100CFA00F6008230F7009A227008C3007108C40017
:100D0A007208C5007308C6007008F4007108F5007F
:100D1A007208F6007308F7000030F0000030F100A6
:100D2A002030F2008130F3009A220030F4000030C3
:100D3A00F5002030F6008230F70083257008C300E2
:100D4A007108C4007208C5007308C6007008CD0097
:100D5A007108CE007208CF007308D000A030D1000D
:100D6A005123C701C80180304806F0008030700264
:100D7A00031DC12E033047020318D32E4708493EEC
:100D8A00F1004708A03E84000008F00071088400C2
:100D9A0070088000C70A0319C80AB82E4B082E3AF1
:100DAA00031DD92E2030CB000230CD000330CE00F7
:100DBA004930CF00E9250230CD000630CE00393067
:100DCA00CF00E9250530CD00612570088312B100F6
:100DDA007108B2004B252130F4002330F500203091
:100DEA00F6007730F70017220030F4000030F500E3
:100DFA004830F6008530F70017227008C3007108E2
:100E0A00C4007208C5007308C6007008CD007108D6
:100E1A00CE007208CF007308D000A030D100512351
:100E2A00C701C80180304806F00080307002031DF7
:100E3A00202F023047020318322F4708493EF1009B
:100E4A004708A03E84000008F0007108840070087A
:100E5A008000C70A0319C80A172F0230CD000B30C9
:100E6A00CE004930CF00E9250230CD000D30CE004A
:100E7A003630CF00E9250330FB008A30FC005530BC
:100E8A00FD00FD0B462FFC0B462FFB0B462F0000E7
:060E9A0000005D2E4F2F49
:100EE400213084001C3083120313F0005530BE00FF
:080EF4000730BF0029260800A9
:080EAA0049344E344634003493
:060EB20052343D3400340F
:060EB80056343D34003405
:080EBE004E3461344E3400345F
:040EC6003034003490
:040ECA0000340034BC
:060ECE0054343D340034F1
:060ED40020344334003419
:080EDA002034F434203400340C
:04400E00F72F000781
:00000001FF
